{"bytecode":"608060405267016345785d8a000060045534801561001c57600080fd5b506040516106503803806106508339818101604052602081101561003f57600080fd5b505160018054336001600160a01b031991821617909155600080549091166001600160a01b038316179055610072610078565b50610082565b4361271001600355565b6105bf806100916000396000f3fe608060405234801561001057600080fd5b50600436106100a95760003560e01c806370740ac91161007157806370740ac91461013f578063bb0c829814610147578063bf6242731461014f578063ca4b208b14610157578063d08635801461015f578063d384a75614610167576100a9565b80630482a787146100ae5780631be1095e146100cd5780633d15cc6d146100e7578063464678391461010b5780636e0d074314610137575b600080fd5b6100cb600480360360208110156100c457600080fd5b503561016f565b005b6100d561017c565b60408051918252519081900360200190f35b6100ef610181565b604080516001600160a01b039092168252519081900360200190f35b6100cb6004803603604081101561012157600080fd5b506001600160a01b038135169060200135610190565b6100d5610327565b6100cb61032d565b6100d5610537565b6100d561053d565b6100ef610543565b6100d5610552565b6100ef610570565b6101793382610190565b50565b600a81565b6000546001600160a01b031681565b600280546001600160a01b0319166001600160a01b0384161790556003544311156101f3576040805162461bcd60e51b815260206004820152600e60248201526d11d85b59481a185cc8195b99195960921b604482015290519081900360640190fd5b600454811161023d576040805162461bcd60e51b81526020600482015260116024820152704e6f7420656e6f75676820746f6b656e7360781b604482015290519081900360640190fd5b60008054604080516323b872dd60e01b81526001600160a01b03868116600483015230602483015260448201869052915191909216926323b872dd92606480820193602093909283900390910190829087803b15801561029c57600080fd5b505af11580156102b0573d6000803e3d6000fd5b505050506040513d60208110156102c657600080fd5b5051610310576040805162461bcd60e51b8152602060048201526014602482015273151bdad95b881c185e5b595b9d0819985a5b195960621b604482015290519081900360640190fd5b6064606e820204600455505060038054600a019055565b61271081565b600354431161037c576040805162461bcd60e51b815260206004820152601660248201527511d85b59481a185cc81b9bdd081e595d08195b99195960521b604482015290519081900360640190fd5b60008054604080516370a0823160e01b815230600482015290516001600160a01b03909216916370a0823191602480820192602092909190829003018186803b1580156103c857600080fd5b505afa1580156103dc573d6000803e3d6000fd5b505050506040513d60208110156103f257600080fd5b5051600080546001546040805163a9059cbb60e01b81526001600160a01b039283166004820152606460058702046024820152905194955091169263a9059cbb92604480840193602093929083900390910190829087803b15801561045657600080fd5b505af115801561046a573d6000803e3d6000fd5b505050506040513d602081101561048057600080fd5b505161048b57600080fd5b6000546002546001600160a01b039182169163a9059cbb91166064605f8502046040518363ffffffff1660e01b815260040180836001600160a01b03166001600160a01b0316815260200182815260200192505050602060405180830381600087803b1580156104fa57600080fd5b505af115801561050e573d6000803e3d6000fd5b505050506040513d602081101561052457600080fd5b505161052f57600080fd5b61017961057f565b60045481565b60035481565b6001546001600160a01b031681565b60006003544311610569574360035403905061056d565b5060005b90565b6002546001600160a01b031681565b436127100160035556fea26469706673582212204cd58d66f82bad2b4f3881f1ca6af7d9a5f15d6aa3fef03ef38f7f824955dfb564736f6c63430006090033","bytecodeSha1":"9d429fca7170bbaee77f48e9c35a136b17dfdd09","type":"contract","abi":[{"inputs":[{"internalType":"contract IERC20","name":"_paymentCurrency","type":"address"}],"stateMutability":"nonpayable","type":"constructor","name":"constructor"},{"inputs":[],"name":"BUMP","outputs":[{"internalType":"uint256","name":"","type":"uint256"}],"stateMutability":"view","type":"function"},{"inputs":[],"name":"INITIALEXPIRYBLOCKS","outputs":[{"internalType":"uint256","name":"","type":"uint256"}],"stateMutability":"view","type":"function"},{"inputs":[],"name":"blocksRemaining","outputs":[{"internalType":"uint256","name":"","type":"uint256"}],"stateMutability":"view","type":"function"},{"inputs":[],"name":"claimPrize","outputs":[],"stateMutability":"nonpayable","type":"function"},{"inputs":[{"internalType":"uint256","name":"_amount","type":"uint256"}],"name":"commitTokens","outputs":[],"stateMutability":"nonpayable","type":"function"},{"inputs":[{"internalType":"address","name":"_from","type":"address"},{"internalType":"uint256","name":"_amount","type":"uint256"}],"name":"commitTokensFrom","outputs":[],"stateMutability":"nonpayable","type":"function"},{"inputs":[],"name":"developer","outputs":[{"internalType":"address","name":"","type":"address"}],"stateMutability":"view","type":"function"},{"inputs":[],"name":"expiryBlock","outputs":[{"internalType":"uint256","name":"","type":"uint256"}],"stateMutability":"view","type":"function"},{"inputs":[],"name":"lastContributor","outputs":[{"internalType":"address","name":"","type":"address"}],"stateMutability":"view","type":"function"},{"inputs":[],"name":"minimumAmount","outputs":[{"internalType":"uint256","name":"","type":"uint256"}],"stateMutability":"view","type":"function"},{"inputs":[],"name":"paymentCurrency","outputs":[{"internalType":"contract IERC20","name":"","type":"address"}],"stateMutability":"view","type":"function"}],"compiler":{"version":"0.6.9","evm_version":"istanbul","optimizer":{"enabled":true,"runs":200}},"contractName":"TimesSquare","language":"Solidity","natspec":{"methods":{"claimPrize()":{"details":"Commit approved ERC20 tokens to buy tokens on sale"},"commitTokens(uint256)":{"details":"Commit approved ERC20 token"},"commitTokensFrom(address,uint256)":{"details":"Users must approve contract prior to committing tokens"}}},"opcodes":"PUSH1 0x80 PUSH1 0x40 MSTORE CALLVALUE DUP1 ISZERO PUSH2 0x10 JUMPI PUSH1 0x0 DUP1 REVERT JUMPDEST POP PUSH1 0x4 CALLDATASIZE LT PUSH2 0xA9 JUMPI PUSH1 0x0 CALLDATALOAD PUSH1 0xE0 SHR DUP1 PUSH4 0x70740AC9 GT PUSH2 0x71 JUMPI DUP1 PUSH4 0x70740AC9 EQ PUSH2 0x13F JUMPI DUP1 PUSH4 0xBB0C8298 EQ PUSH2 0x147 JUMPI DUP1 PUSH4 0xBF624273 EQ PUSH2 0x14F JUMPI DUP1 PUSH4 0xCA4B208B EQ PUSH2 0x157 JUMPI DUP1 PUSH4 0xD0863580 EQ PUSH2 0x15F JUMPI DUP1 PUSH4 0xD384A756 EQ PUSH2 0x167 JUMPI PUSH2 0xA9 JUMP JUMPDEST DUP1 PUSH4 0x482A787 EQ PUSH2 0xAE JUMPI DUP1 PUSH4 0x1BE1095E EQ PUSH2 0xCD JUMPI DUP1 PUSH4 0x3D15CC6D EQ PUSH2 0xE7 JUMPI DUP1 PUSH4 0x46467839 EQ PUSH2 0x10B JUMPI DUP1 PUSH4 0x6E0D0743 EQ PUSH2 0x137 JUMPI JUMPDEST PUSH1 0x0 DUP1 REVERT JUMPDEST PUSH2 0xCB PUSH1 0x4 DUP1 CALLDATASIZE SUB PUSH1 0x20 DUP2 LT ISZERO PUSH2 0xC4 JUMPI PUSH1 0x0 DUP1 REVERT JUMPDEST POP CALLDATALOAD PUSH2 0x16F JUMP JUMPDEST STOP JUMPDEST PUSH2 0xD5 PUSH2 0x17C JUMP JUMPDEST PUSH1 0x40 DUP1 MLOAD SWAP2 DUP3 MSTORE MLOAD SWAP1 DUP2 SWAP1 SUB PUSH1 0x20 ADD SWAP1 RETURN JUMPDEST PUSH2 0xEF PUSH2 0x181 JUMP JUMPDEST PUSH1 0x40 DUP1 MLOAD PUSH1 0x1 PUSH1 0x1 PUSH1 0xA0 SHL SUB SWAP1 SWAP3 AND DUP3 MSTORE MLOAD SWAP1 DUP2 SWAP1 SUB PUSH1 0x20 ADD SWAP1 RETURN JUMPDEST PUSH2 0xCB PUSH1 0x4 DUP1 CALLDATASIZE SUB PUSH1 0x40 DUP2 LT ISZERO PUSH2 0x121 JUMPI PUSH1 0x0 DUP1 REVERT JUMPDEST POP PUSH1 0x1 PUSH1 0x1 PUSH1 0xA0 SHL SUB DUP2 CALLDATALOAD AND SWAP1 PUSH1 0x20 ADD CALLDATALOAD PUSH2 0x190 JUMP JUMPDEST PUSH2 0xD5 PUSH2 0x327 JUMP JUMPDEST PUSH2 0xCB PUSH2 0x32D JUMP JUMPDEST PUSH2 0xD5 PUSH2 0x537 JUMP JUMPDEST PUSH2 0xD5 PUSH2 0x53D JUMP JUMPDEST PUSH2 0xEF PUSH2 0x543 JUMP JUMPDEST PUSH2 0xD5 PUSH2 0x552 JUMP JUMPDEST PUSH2 0xEF PUSH2 0x570 JUMP JUMPDEST PUSH2 0x179 CALLER DUP3 PUSH2 0x190 JUMP JUMPDEST POP JUMP JUMPDEST PUSH1 0xA DUP2 JUMP JUMPDEST PUSH1 0x0 SLOAD PUSH1 0x1 PUSH1 0x1 PUSH1 0xA0 SHL SUB AND DUP2 JUMP JUMPDEST PUSH1 0x2 DUP1 SLOAD PUSH1 0x1 PUSH1 0x1 PUSH1 0xA0 SHL SUB NOT AND PUSH1 0x1 PUSH1 0x1 PUSH1 0xA0 SHL SUB DUP5 AND OR SWAP1 SSTORE PUSH1 0x3 SLOAD NUMBER GT ISZERO PUSH2 0x1F3 JUMPI PUSH1 0x40 DUP1 MLOAD PUSH3 0x461BCD PUSH1 0xE5 SHL DUP2 MSTORE PUSH1 0x20 PUSH1 0x4 DUP3 ADD MSTORE PUSH1 0xE PUSH1 0x24 DUP3 ADD MSTORE PUSH14 0x11D85B59481A185CC8195B991959 PUSH1 0x92 SHL PUSH1 0x44 DUP3 ADD MSTORE SWAP1 MLOAD SWAP1 DUP2 SWAP1 SUB PUSH1 0x64 ADD SWAP1 REVERT JUMPDEST PUSH1 0x4 SLOAD DUP2 GT PUSH2 0x23D JUMPI PUSH1 0x40 DUP1 MLOAD PUSH3 0x461BCD PUSH1 0xE5 SHL DUP2 MSTORE PUSH1 0x20 PUSH1 0x4 DUP3 ADD MSTORE PUSH1 0x11 PUSH1 0x24 DUP3 ADD MSTORE PUSH17 0x4E6F7420656E6F75676820746F6B656E73 PUSH1 0x78 SHL PUSH1 0x44 DUP3 ADD MSTORE SWAP1 MLOAD SWAP1 DUP2 SWAP1 SUB PUSH1 0x64 ADD SWAP1 REVERT JUMPDEST PUSH1 0x0 DUP1 SLOAD PUSH1 0x40 DUP1 MLOAD PUSH4 0x23B872DD PUSH1 0xE0 SHL DUP2 MSTORE PUSH1 0x1 PUSH1 0x1 PUSH1 0xA0 SHL SUB DUP7 DUP2 AND PUSH1 0x4 DUP4 ADD MSTORE ADDRESS PUSH1 0x24 DUP4 ADD MSTORE PUSH1 0x44 DUP3 ADD DUP7 SWAP1 MSTORE SWAP2 MLOAD SWAP2 SWAP1 SWAP3 AND SWAP3 PUSH4 0x23B872DD SWAP3 PUSH1 0x64 DUP1 DUP3 ADD SWAP4 PUSH1 0x20 SWAP4 SWAP1 SWAP3 DUP4 SWAP1 SUB SWAP1 SWAP2 ADD SWAP1 DUP3 SWAP1 DUP8 DUP1 EXTCODESIZE ISZERO DUP1 ISZERO PUSH2 0x29C JUMPI PUSH1 0x0 DUP1 REVERT JUMPDEST POP GAS CALL ISZERO DUP1 ISZERO PUSH2 0x2B0 JUMPI RETURNDATASIZE PUSH1 0x0 DUP1 RETURNDATACOPY RETURNDATASIZE PUSH1 0x0 REVERT JUMPDEST POP POP POP POP PUSH1 0x40 MLOAD RETURNDATASIZE PUSH1 0x20 DUP2 LT ISZERO PUSH2 0x2C6 JUMPI PUSH1 0x0 DUP1 REVERT JUMPDEST POP MLOAD PUSH2 0x310 JUMPI PUSH1 0x40 DUP1 MLOAD PUSH3 0x461BCD PUSH1 0xE5 SHL DUP2 MSTORE PUSH1 0x20 PUSH1 0x4 DUP3 ADD MSTORE PUSH1 0x14 PUSH1 0x24 DUP3 ADD MSTORE PUSH20 0x151BDAD95B881C185E5B595B9D0819985A5B1959 PUSH1 0x62 SHL PUSH1 0x44 DUP3 ADD MSTORE SWAP1 MLOAD SWAP1 DUP2 SWAP1 SUB PUSH1 0x64 ADD SWAP1 REVERT JUMPDEST PUSH1 0x64 PUSH1 0x6E DUP3 MUL DIV PUSH1 0x4 SSTORE POP POP PUSH1 0x3 DUP1 SLOAD PUSH1 0xA ADD SWAP1 SSTORE JUMP JUMPDEST PUSH2 0x2710 DUP2 JUMP JUMPDEST PUSH1 0x3 SLOAD NUMBER GT PUSH2 0x37C JUMPI PUSH1 0x40 DUP1 MLOAD PUSH3 0x461BCD PUSH1 0xE5 SHL DUP2 MSTORE PUSH1 0x20 PUSH1 0x4 DUP3 ADD MSTORE PUSH1 0x16 PUSH1 0x24 DUP3 ADD MSTORE PUSH22 0x11D85B59481A185CC81B9BDD081E595D08195B991959 PUSH1 0x52 SHL PUSH1 0x44 DUP3 ADD MSTORE SWAP1 MLOAD SWAP1 DUP2 SWAP1 SUB PUSH1 0x64 ADD SWAP1 REVERT JUMPDEST PUSH1 0x0 DUP1 SLOAD PUSH1 0x40 DUP1 MLOAD PUSH4 0x70A08231 PUSH1 0xE0 SHL DUP2 MSTORE ADDRESS PUSH1 0x4 DUP3 ADD MSTORE SWAP1 MLOAD PUSH1 0x1 PUSH1 0x1 PUSH1 0xA0 SHL SUB SWAP1 SWAP3 AND SWAP2 PUSH4 0x70A08231 SWAP2 PUSH1 0x24 DUP1 DUP3 ADD SWAP3 PUSH1 0x20 SWAP3 SWAP1 SWAP2 SWAP1 DUP3 SWAP1 SUB ADD DUP2 DUP7 DUP1 EXTCODESIZE ISZERO DUP1 ISZERO PUSH2 0x3C8 JUMPI PUSH1 0x0 DUP1 REVERT JUMPDEST POP GAS STATICCALL ISZERO DUP1 ISZERO PUSH2 0x3DC JUMPI RETURNDATASIZE PUSH1 0x0 DUP1 RETURNDATACOPY RETURNDATASIZE PUSH1 0x0 REVERT JUMPDEST POP POP POP POP PUSH1 0x40 MLOAD RETURNDATASIZE PUSH1 0x20 DUP2 LT ISZERO PUSH2 0x3F2 JUMPI PUSH1 0x0 DUP1 REVERT JUMPDEST POP MLOAD PUSH1 0x0 DUP1 SLOAD PUSH1 0x1 SLOAD PUSH1 0x40 DUP1 MLOAD PUSH4 0xA9059CBB PUSH1 0xE0 SHL DUP2 MSTORE PUSH1 0x1 PUSH1 0x1 PUSH1 0xA0 SHL SUB SWAP3 DUP4 AND PUSH1 0x4 DUP3 ADD MSTORE PUSH1 0x64 PUSH1 0x5 DUP8 MUL DIV PUSH1 0x24 DUP3 ADD MSTORE SWAP1 MLOAD SWAP5 SWAP6 POP SWAP2 AND SWAP3 PUSH4 0xA9059CBB SWAP3 PUSH1 0x44 DUP1 DUP5 ADD SWAP4 PUSH1 0x20 SWAP4 SWAP3 SWAP1 DUP4 SWAP1 SUB SWAP1 SWAP2 ADD SWAP1 DUP3 SWAP1 DUP8 DUP1 EXTCODESIZE ISZERO DUP1 ISZERO PUSH2 0x456 JUMPI PUSH1 0x0 DUP1 REVERT JUMPDEST POP GAS CALL ISZERO DUP1 ISZERO PUSH2 0x46A JUMPI RETURNDATASIZE PUSH1 0x0 DUP1 RETURNDATACOPY RETURNDATASIZE PUSH1 0x0 REVERT JUMPDEST POP POP POP POP PUSH1 0x40 MLOAD RETURNDATASIZE PUSH1 0x20 DUP2 LT ISZERO PUSH2 0x480 JUMPI PUSH1 0x0 DUP1 REVERT JUMPDEST POP MLOAD PUSH2 0x48B JUMPI PUSH1 0x0 DUP1 REVERT JUMPDEST PUSH1 0x0 SLOAD PUSH1 0x2 SLOAD PUSH1 0x1 PUSH1 0x1 PUSH1 0xA0 SHL SUB SWAP2 DUP3 AND SWAP2 PUSH4 0xA9059CBB SWAP2 AND PUSH1 0x64 PUSH1 0x5F DUP6 MUL DIV PUSH1 0x40 MLOAD DUP4 PUSH4 0xFFFFFFFF AND PUSH1 0xE0 SHL DUP2 MSTORE PUSH1 0x4 ADD DUP1 DUP4 PUSH1 0x1 PUSH1 0x1 PUSH1 0xA0 SHL SUB AND PUSH1 0x1 PUSH1 0x1 PUSH1 0xA0 SHL SUB AND DUP2 MSTORE PUSH1 0x20 ADD DUP3 DUP2 MSTORE PUSH1 0x20 ADD SWAP3 POP POP POP PUSH1 0x20 PUSH1 0x40 MLOAD DUP1 DUP4 SUB DUP2 PUSH1 0x0 DUP8 DUP1 EXTCODESIZE ISZERO DUP1 ISZERO PUSH2 0x4FA JUMPI PUSH1 0x0 DUP1 REVERT JUMPDEST POP GAS CALL ISZERO DUP1 ISZERO PUSH2 0x50E JUMPI RETURNDATASIZE PUSH1 0x0 DUP1 RETURNDATACOPY RETURNDATASIZE PUSH1 0x0 REVERT JUMPDEST POP POP POP POP PUSH1 0x40 MLOAD RETURNDATASIZE PUSH1 0x20 DUP2 LT ISZERO PUSH2 0x524 JUMPI PUSH1 0x0 DUP1 REVERT JUMPDEST POP MLOAD PUSH2 0x52F JUMPI PUSH1 0x0 DUP1 REVERT JUMPDEST PUSH2 0x179 PUSH2 0x57F JUMP JUMPDEST PUSH1 0x4 SLOAD DUP2 JUMP JUMPDEST PUSH1 0x3 SLOAD DUP2 JUMP JUMPDEST PUSH1 0x1 SLOAD PUSH1 0x1 PUSH1 0x1 PUSH1 0xA0 SHL SUB AND DUP2 JUMP JUMPDEST PUSH1 0x0 PUSH1 0x3 SLOAD NUMBER GT PUSH2 0x569 JUMPI NUMBER PUSH1 0x3 SLOAD SUB SWAP1 POP PUSH2 0x56D JUMP JUMPDEST POP PUSH1 0x0 JUMPDEST SWAP1 JUMP JUMPDEST PUSH1 0x2 SLOAD PUSH1 0x1 PUSH1 0x1 PUSH1 0xA0 SHL SUB AND DUP2 JUMP JUMPDEST NUMBER PUSH2 0x2710 ADD PUSH1 0x3 SSTORE JUMP INVALID LOG2 PUSH5 0x6970667358 0x22 SLT KECCAK256 0x4C 0xD5 DUP14 PUSH7 0xF82BAD2B4F3881 CALL 0xCA PUSH11 0xF7D9A5F15D6AA3FEF03EF3 DUP16 PUSH32 0x824955DFB564736F6C6343000609003300000000000000000000000000000000 ","sha1":"d1b391dc77ca98ca6ddec35bd286c74eb2607574","source":"pragma solidity ^0.6.9;\n\nimport \"@openzeppelin/contracts/token/ERC20/IERC20.sol\";\n\n\ncontract TimesSquare {\n\n    uint public constant INITIALEXPIRYBLOCKS = 10000;\n    uint public constant BUMP = 10;\n\n    IERC20 public paymentCurrency;\n    address public developer;\n    address public lastContributor;\n    uint public expiryBlock;\n    uint public minimumAmount = 0.1 ether;\n\n    constructor (IERC20 _paymentCurrency) public {\n        developer = msg.sender;\n        paymentCurrency = _paymentCurrency;\n        startGame();\n    }\n\n    function startGame() internal {\n        expiryBlock = block.number + INITIALEXPIRYBLOCKS;\n    }\n\n    /// @dev Commit approved ERC20 token\n    function commitTokens (uint256 _amount) public {\n        commitTokensFrom(msg.sender, _amount);\n    }\n\n    /// @dev Users must approve contract prior to committing tokens\n    function commitTokensFrom (address _from, uint256 _amount) public {\n        lastContributor = _from;\n        require(block.number <= expiryBlock, \"Game has ended\");\n        require(_amount> minimumAmount, \"Not enough tokens\");\n        require(paymentCurrency.transferFrom(_from, address(this), _amount), \"Token payment failed\");\n        minimumAmount = _amount * 110 / 100;\n        expiryBlock += BUMP;\n    }\n\n    /// @dev Commit approved ERC20 tokens to buy tokens on sale\n    function claimPrize() public {\n        require(block.number > expiryBlock, \"Game has not yet ended\");\n        uint256 amount = paymentCurrency.balanceOf(address(this));\n        require(paymentCurrency.transfer(address(uint160(developer)), amount * 5 / 100));\n        require(paymentCurrency.transfer(address(uint160(lastContributor)), amount * 95 / 100));\n        startGame();\n    }\n\n    function blocksRemaining() public view returns (uint256) {\n        if (block.number <= expiryBlock) {\n            return expiryBlock - block.number;\n        }\n        return 0;\n    }\n\n}\n","sourcePath":"contracts/TimesSquare.sol","deployment":{"address":"0x8853a830D5EB99D79C62329E4e395d7eFE2b0f9C","chainid":"3","blockHeight":8056615}}