{
  "abi": [
    {
      "inputs": [],
      "stateMutability": "nonpayable",
      "type": "constructor"
    },
    {
      "inputs": [],
      "name": "BUMP",
      "outputs": [
        {
          "internalType": "uint256",
          "name": "",
          "type": "uint256"
        }
      ],
      "stateMutability": "view",
      "type": "function"
    },
    {
      "inputs": [],
      "name": "INITIALEXPIRYBLOCKS",
      "outputs": [
        {
          "internalType": "uint256",
          "name": "",
          "type": "uint256"
        }
      ],
      "stateMutability": "view",
      "type": "function"
    },
    {
      "inputs": [],
      "name": "claim",
      "outputs": [],
      "stateMutability": "nonpayable",
      "type": "function"
    },
    {
      "inputs": [],
      "name": "expiryBlock",
      "outputs": [
        {
          "internalType": "uint256",
          "name": "",
          "type": "uint256"
        }
      ],
      "stateMutability": "view",
      "type": "function"
    },
    {
      "inputs": [],
      "name": "lastContributor",
      "outputs": [
        {
          "internalType": "address",
          "name": "",
          "type": "address"
        }
      ],
      "stateMutability": "view",
      "type": "function"
    },
    {
      "inputs": [],
      "name": "minimumAmount",
      "outputs": [
        {
          "internalType": "uint256",
          "name": "",
          "type": "uint256"
        }
      ],
      "stateMutability": "view",
      "type": "function"
    },
    {
      "stateMutability": "payable",
      "type": "receive"
    }
  ],
  "bytecode": "608060405267016345785d8a000060025534801561001c57600080fd5b5043612710016001556101fc806100346000396000f3fe6080604052600436106100595760003560e01c80631be1095e146100a75780634e71d92d146100ce5780636e0d0743146100e5578063bb0c8298146100fa578063bf6242731461010f578063d384a75614610124576100a2565b366100a257600080546001600160a01b03191633179055600254341161007e57600080fd5b60015443111561008d57600080fd5b6064606e34020460025560018054600a019055005b600080fd5b3480156100b357600080fd5b506100bc610155565b60408051918252519081900360200190f35b3480156100da57600080fd5b506100e361015a565b005b3480156100f157600080fd5b506100bc6101a5565b34801561010657600080fd5b506100bc6101ab565b34801561011b57600080fd5b506100bc6101b1565b34801561013057600080fd5b506101396101b7565b604080516001600160a01b039092168252519081900360200190f35b600a81565b600154431161016857600080fd5b600080546040516001600160a01b03909116914780156108fc02929091818181858888f193505050501580156101a2573d6000803e3d6000fd5b50565b61271081565b60025481565b60015481565b6000546001600160a01b03168156fea26469706673582212203456d6eab5b02fbfac0a61a7160d176ac772d47cb27054b746e689477439970a64736f6c63430006090033",
  "bytecodeSha1": "c0b75f9c1c5ef7ebc16e69dc11f75c9317e92e76",
  "compiler": {
    "evm_version": "istanbul",
    "optimizer": {
      "enabled": true,
      "runs": 200
    },
    "version": "0.6.9"
  },
  "contractName": "TimesSquareEth",
  "language": "Solidity",
  "natspec": {
    "methods": {}
  },
  "opcodes": "PUSH1 0x80 PUSH1 0x40 MSTORE PUSH1 0x4 CALLDATASIZE LT PUSH2 0x59 JUMPI PUSH1 0x0 CALLDATALOAD PUSH1 0xE0 SHR DUP1 PUSH4 0x1BE1095E EQ PUSH2 0xA7 JUMPI DUP1 PUSH4 0x4E71D92D EQ PUSH2 0xCE JUMPI DUP1 PUSH4 0x6E0D0743 EQ PUSH2 0xE5 JUMPI DUP1 PUSH4 0xBB0C8298 EQ PUSH2 0xFA JUMPI DUP1 PUSH4 0xBF624273 EQ PUSH2 0x10F JUMPI DUP1 PUSH4 0xD384A756 EQ PUSH2 0x124 JUMPI PUSH2 0xA2 JUMP JUMPDEST CALLDATASIZE PUSH2 0xA2 JUMPI PUSH1 0x0 DUP1 SLOAD PUSH1 0x1 PUSH1 0x1 PUSH1 0xA0 SHL SUB NOT AND CALLER OR SWAP1 SSTORE PUSH1 0x2 SLOAD CALLVALUE GT PUSH2 0x7E JUMPI PUSH1 0x0 DUP1 REVERT JUMPDEST PUSH1 0x1 SLOAD NUMBER GT ISZERO PUSH2 0x8D JUMPI PUSH1 0x0 DUP1 REVERT JUMPDEST PUSH1 0x64 PUSH1 0x6E CALLVALUE MUL DIV PUSH1 0x2 SSTORE PUSH1 0x1 DUP1 SLOAD PUSH1 0xA ADD SWAP1 SSTORE STOP JUMPDEST PUSH1 0x0 DUP1 REVERT JUMPDEST CALLVALUE DUP1 ISZERO PUSH2 0xB3 JUMPI PUSH1 0x0 DUP1 REVERT JUMPDEST POP PUSH2 0xBC PUSH2 0x155 JUMP JUMPDEST PUSH1 0x40 DUP1 MLOAD SWAP2 DUP3 MSTORE MLOAD SWAP1 DUP2 SWAP1 SUB PUSH1 0x20 ADD SWAP1 RETURN JUMPDEST CALLVALUE DUP1 ISZERO PUSH2 0xDA JUMPI PUSH1 0x0 DUP1 REVERT JUMPDEST POP PUSH2 0xE3 PUSH2 0x15A JUMP JUMPDEST STOP JUMPDEST CALLVALUE DUP1 ISZERO PUSH2 0xF1 JUMPI PUSH1 0x0 DUP1 REVERT JUMPDEST POP PUSH2 0xBC PUSH2 0x1A5 JUMP JUMPDEST CALLVALUE DUP1 ISZERO PUSH2 0x106 JUMPI PUSH1 0x0 DUP1 REVERT JUMPDEST POP PUSH2 0xBC PUSH2 0x1AB JUMP JUMPDEST CALLVALUE DUP1 ISZERO PUSH2 0x11B JUMPI PUSH1 0x0 DUP1 REVERT JUMPDEST POP PUSH2 0xBC PUSH2 0x1B1 JUMP JUMPDEST CALLVALUE DUP1 ISZERO PUSH2 0x130 JUMPI PUSH1 0x0 DUP1 REVERT JUMPDEST POP PUSH2 0x139 PUSH2 0x1B7 JUMP JUMPDEST PUSH1 0x40 DUP1 MLOAD PUSH1 0x1 PUSH1 0x1 PUSH1 0xA0 SHL SUB SWAP1 SWAP3 AND DUP3 MSTORE MLOAD SWAP1 DUP2 SWAP1 SUB PUSH1 0x20 ADD SWAP1 RETURN JUMPDEST PUSH1 0xA DUP2 JUMP JUMPDEST PUSH1 0x1 SLOAD NUMBER GT PUSH2 0x168 JUMPI PUSH1 0x0 DUP1 REVERT JUMPDEST PUSH1 0x0 DUP1 SLOAD PUSH1 0x40 MLOAD PUSH1 0x1 PUSH1 0x1 PUSH1 0xA0 SHL SUB SWAP1 SWAP2 AND SWAP2 SELFBALANCE DUP1 ISZERO PUSH2 0x8FC MUL SWAP3 SWAP1 SWAP2 DUP2 DUP2 DUP2 DUP6 DUP9 DUP9 CALL SWAP4 POP POP POP POP ISZERO DUP1 ISZERO PUSH2 0x1A2 JUMPI RETURNDATASIZE PUSH1 0x0 DUP1 RETURNDATACOPY RETURNDATASIZE PUSH1 0x0 REVERT JUMPDEST POP JUMP JUMPDEST PUSH2 0x2710 DUP2 JUMP JUMPDEST PUSH1 0x2 SLOAD DUP2 JUMP JUMPDEST PUSH1 0x1 SLOAD DUP2 JUMP JUMPDEST PUSH1 0x0 SLOAD PUSH1 0x1 PUSH1 0x1 PUSH1 0xA0 SHL SUB AND DUP2 JUMP INVALID LOG2 PUSH5 0x6970667358 0x22 SLT KECCAK256 CALLVALUE JUMP 0xD6 0xEA 0xB5 0xB0 0x2F 0xBF 0xAC EXP PUSH2 0xA716 0xD OR PUSH11 0xC772D47CB27054B746E689 SELFBALANCE PUSH21 0x39970A64736F6C6343000609003300000000000000 ",
  "sha1": "3b39b31c68635d2e8ef5ef400127063a108c53d8",
  "source": "pragma solidity ^0.6.9;\n\ncontract TimesSquareEth {\n\n    uint public constant INITIALEXPIRYBLOCKS = 10000;\n    uint public constant BUMP = 10;\n\n    address public lastContributor;\n    uint public expiryBlock;\n    uint public minimumAmount = 0.1 ether;\n\n    constructor () public {\n        expiryBlock = block.number + INITIALEXPIRYBLOCKS;\n    }\n\n    receive () payable external {\n        lastContributor = msg.sender;\n        require(msg.value > minimumAmount);\n        require(block.number <= expiryBlock);\n        minimumAmount = msg.value * 110 / 100;\n        expiryBlock += BUMP;\n    }\n\n    function claim() public {\n        require(block.number > expiryBlock);\n        address(uint160(lastContributor)).transfer(address(this).balance);\n    }\n\n}\n",
  "sourcePath": "contracts/TimesSquareEth.sol",
  "type": "contract"
}